{
  "contractName": "BloodDonationRegistry",
  "abi": [
    {
      "anonymous": false,
      "inputs": [
        {
          "indexed": false,
          "internalType": "string",
          "name": "donorDID",
          "type": "string"
        },
        {
          "indexed": false,
          "internalType": "string",
          "name": "donationDate",
          "type": "string"
        },
        {
          "indexed": false,
          "internalType": "string",
          "name": "bloodType",
          "type": "string"
        }
      ],
      "name": "DonationRecorded",
      "type": "event"
    },
    {
      "anonymous": false,
      "inputs": [
        {
          "indexed": false,
          "internalType": "string",
          "name": "donorDID",
          "type": "string"
        }
      ],
      "name": "DonorVerified",
      "type": "event"
    },
    {
      "inputs": [
        {
          "internalType": "string",
          "name": "donorDID",
          "type": "string"
        },
        {
          "internalType": "string",
          "name": "donationDate",
          "type": "string"
        },
        {
          "internalType": "string",
          "name": "bloodType",
          "type": "string"
        }
      ],
      "name": "recordDonation",
      "outputs": [],
      "stateMutability": "nonpayable",
      "type": "function"
    },
    {
      "inputs": [
        {
          "internalType": "string",
          "name": "donorDID",
          "type": "string"
        }
      ],
      "name": "verifyDonor",
      "outputs": [],
      "stateMutability": "nonpayable",
      "type": "function"
    },
    {
      "inputs": [
        {
          "internalType": "string",
          "name": "donorDID",
          "type": "string"
        }
      ],
      "name": "isDonorVerified",
      "outputs": [
        {
          "internalType": "bool",
          "name": "",
          "type": "bool"
        }
      ],
      "stateMutability": "view",
      "type": "function",
      "constant": true
    },
    {
      "inputs": [
        {
          "internalType": "string",
          "name": "donorDID",
          "type": "string"
        }
      ],
      "name": "getDonation",
      "outputs": [
        {
          "components": [
            {
              "internalType": "string",
              "name": "donorDID",
              "type": "string"
            },
            {
              "internalType": "string",
              "name": "donationDate",
              "type": "string"
            },
            {
              "internalType": "string",
              "name": "bloodType",
              "type": "string"
            }
          ],
          "internalType": "struct BloodDonationRegistry.BloodDonation",
          "name": "",
          "type": "tuple"
        }
      ],
      "stateMutability": "view",
      "type": "function",
      "constant": true
    }
  ],
  "bytecode": "0x608060405234801561001057600080fd5b50610abd806100206000396000f3fe608060405234801561001057600080fd5b506004361061004c5760003560e01c8063335f3d33146100515780635adce3321461008157806375af8385146100b15780639ae688dc146100cd575b600080fd5b61006b600480360381019061006691906105c3565b6100e9565b60405161007891906107e5565b60405180910390f35b61009b600480360381019061009691906105c3565b61011e565b6040516100a8919061088e565b60405180910390f35b6100cb60048036038101906100c69190610604565b610354565b005b6100e760048036038101906100e291906105c3565b610427565b005b60006001826040516100fb91906107ce565b908152602001604051809103902060009054906101000a900460ff169050919050565b610126610497565b61012f826100e9565b61016e576040517f08c379a00000000000000000000000000000000000000000000000000000000081526004016101659061086e565b60405180910390fd5b60008260405161017e91906107ce565b90815260200160405180910390206040518060600160405290816000820180546101a79061098c565b80601f01602080910402602001604051908101604052809291908181526020018280546101d39061098c565b80156102205780601f106101f557610100808354040283529160200191610220565b820191906000526020600020905b81548152906001019060200180831161020357829003601f168201915b505050505081526020016001820180546102399061098c565b80601f01602080910402602001604051908101604052809291908181526020018280546102659061098c565b80156102b25780601f10610287576101008083540402835291602001916102b2565b820191906000526020600020905b81548152906001019060200180831161029557829003601f168201915b505050505081526020016002820180546102cb9061098c565b80601f01602080910402602001604051908101604052809291908181526020018280546102f79061098c565b80156103445780601f1061031957610100808354040283529160200191610344565b820191906000526020600020905b81548152906001019060200180831161032757829003601f168201915b5050505050815250509050919050565b60405180606001604052808481526020018381526020018281525060008460405161037f91906107ce565b908152602001604051809103902060008201518160000190805190602001906103a99291906104b8565b5060208201518160010190805190602001906103c69291906104b8565b5060408201518160020190805190602001906103e39291906104b8565b509050507fc7e75e8828f3611560f460b802202f9ec8166f2e61e59c73fb176eafcc8251aa83838360405161041a93929190610822565b60405180910390a1505050565b6001808260405161043891906107ce565b908152602001604051809103902060006101000a81548160ff0219169083151502179055507f31e8d575a8c4f183924e4d92925a4ee78f8512d7bda483553662ac83f8d976a88160405161048c9190610800565b60405180910390a150565b60405180606001604052806060815260200160608152602001606081525090565b8280546104c49061098c565b90600052602060002090601f0160209004810192826104e6576000855561052d565b82601f106104ff57805160ff191683800117855561052d565b8280016001018555821561052d579182015b8281111561052c578251825591602001919060010190610511565b5b50905061053a919061053e565b5090565b5b8082111561055757600081600090555060010161053f565b5090565b600061056e610569846108d5565b6108b0565b90508281526020810184848401111561058657600080fd5b61059184828561094a565b509392505050565b600082601f8301126105aa57600080fd5b81356105ba84826020860161055b565b91505092915050565b6000602082840312156105d557600080fd5b600082013567ffffffffffffffff8111156105ef57600080fd5b6105fb84828501610599565b91505092915050565b60008060006060848603121561061957600080fd5b600084013567ffffffffffffffff81111561063357600080fd5b61063f86828701610599565b935050602084013567ffffffffffffffff81111561065c57600080fd5b61066886828701610599565b925050604084013567ffffffffffffffff81111561068557600080fd5b61069186828701610599565b9150509250925092565b6106a48161093e565b82525050565b60006106b582610906565b6106bf8185610911565b93506106cf818560208601610959565b6106d881610a4d565b840191505092915050565b60006106ee82610906565b6106f88185610922565b9350610708818560208601610959565b61071181610a4d565b840191505092915050565b600061072782610906565b6107318185610933565b9350610741818560208601610959565b80840191505092915050565b600061075a601583610922565b915061076582610a5e565b602082019050919050565b6000606083016000830151848203600086015261078d82826106aa565b915050602083015184820360208601526107a782826106aa565b915050604083015184820360408601526107c182826106aa565b9150508091505092915050565b60006107da828461071c565b915081905092915050565b60006020820190506107fa600083018461069b565b92915050565b6000602082019050818103600083015261081a81846106e3565b905092915050565b6000606082019050818103600083015261083c81866106e3565b9050818103602083015261085081856106e3565b9050818103604083015261086481846106e3565b9050949350505050565b600060208201905081810360008301526108878161074d565b9050919050565b600060208201905081810360008301526108a88184610770565b905092915050565b60006108ba6108cb565b90506108c682826109be565b919050565b6000604051905090565b600067ffffffffffffffff8211156108f0576108ef610a1e565b5b6108f982610a4d565b9050602081019050919050565b600081519050919050565b600082825260208201905092915050565b600082825260208201905092915050565b600081905092915050565b60008115159050919050565b82818337600083830152505050565b60005b8381101561097757808201518184015260208101905061095c565b83811115610986576000848401525b50505050565b600060028204905060018216806109a457607f821691505b602082108114156109b8576109b76109ef565b5b50919050565b6109c782610a4d565b810181811067ffffffffffffffff821117156109e6576109e5610a1e565b5b80604052505050565b7f4e487b7100000000000000000000000000000000000000000000000000000000600052602260045260246000fd5b7f4e487b7100000000000000000000000000000000000000000000000000000000600052604160045260246000fd5b6000601f19601f8301169050919050565b7f446f6e6f72206973206e6f74207665726966696564000000000000000000000060008201525056fea26469706673582212202bd3483a18f9e0b77ba87f7db1e68e3bb95f16f3d03b0bcd713d33c7e88adfa664736f6c63430008040033",
  "immutableReferences": {},
  "source": "// SPDX-License-Identifier: MIT\npragma solidity ^0.8.0;\n\ncontract BloodDonationRegistry {\n    struct BloodDonation {\n        string donorDID;\n        string donationDate;\n        string bloodType;\n    }\n\n    mapping(string => BloodDonation) private donations;\n    mapping(string => bool) private verifiedDonors;\n\n    event DonationRecorded(string donorDID, string donationDate, string bloodType);\n    event DonorVerified(string donorDID);\n\n    function recordDonation(string memory donorDID, string memory donationDate, string memory bloodType) public {\n        donations[donorDID] = BloodDonation(donorDID, donationDate, bloodType);\n        emit DonationRecorded(donorDID, donationDate, bloodType);\n    }\n\n    function verifyDonor(string memory donorDID) public {\n        verifiedDonors[donorDID] = true;\n        emit DonorVerified(donorDID);\n    }\n\n    function isDonorVerified(string memory donorDID) public view returns (bool) {\n        return verifiedDonors[donorDID];\n    }\n\n    function getDonation(string memory donorDID) public view returns (BloodDonation memory) {\n        require(isDonorVerified(donorDID), \"Donor is not verified\");\n        return donations[donorDID];\n    }\n}\n",
  "sourcePath": "/Users/mac/Desktop/programs/personal/blood_donation_did/contracts/BloodDonationRegistry.sol",
  "compiler": {
    "name": "solc",
    "version": "0.8.4+commit.c7e474f2.Emscripten.clang"
  },
  "schemaVersion": "3.4.16",
  "updatedAt": "2024-05-21T15:02:59.373Z",
  "networkType": "ethereum",
  "devdoc": {
    "kind": "dev",
    "methods": {},
    "version": 1
  },
  "userdoc": {
    "kind": "user",
    "methods": {},
    "version": 1
  }
}