{
  "contractName": "BloodDonation",
  "abi": [
    {
      "inputs": [],
      "stateMutability": "nonpayable",
      "type": "constructor"
    },
    {
      "inputs": [
        {
          "internalType": "string",
          "name": "",
          "type": "string"
        }
      ],
      "name": "certificates",
      "outputs": [
        {
          "internalType": "string",
          "name": "certificateId",
          "type": "string"
        },
        {
          "internalType": "string",
          "name": "donorId",
          "type": "string"
        },
        {
          "internalType": "uint256",
          "name": "donationDate",
          "type": "uint256"
        },
        {
          "internalType": "bool",
          "name": "isValid",
          "type": "bool"
        }
      ],
      "stateMutability": "view",
      "type": "function",
      "constant": true
    },
    {
      "inputs": [
        {
          "internalType": "string",
          "name": "",
          "type": "string"
        }
      ],
      "name": "donors",
      "outputs": [
        {
          "internalType": "string",
          "name": "name",
          "type": "string"
        },
        {
          "internalType": "uint256",
          "name": "age",
          "type": "uint256"
        },
        {
          "internalType": "string",
          "name": "bloodType",
          "type": "string"
        },
        {
          "internalType": "string",
          "name": "donorId",
          "type": "string"
        }
      ],
      "stateMutability": "view",
      "type": "function",
      "constant": true
    },
    {
      "inputs": [],
      "name": "redCross",
      "outputs": [
        {
          "internalType": "address",
          "name": "",
          "type": "address"
        }
      ],
      "stateMutability": "view",
      "type": "function",
      "constant": true
    },
    {
      "inputs": [
        {
          "internalType": "string",
          "name": "_donorId",
          "type": "string"
        },
        {
          "internalType": "string",
          "name": "_name",
          "type": "string"
        },
        {
          "internalType": "uint256",
          "name": "_age",
          "type": "uint256"
        },
        {
          "internalType": "string",
          "name": "_bloodType",
          "type": "string"
        }
      ],
      "name": "registerDonor",
      "outputs": [],
      "stateMutability": "nonpayable",
      "type": "function"
    },
    {
      "inputs": [
        {
          "internalType": "string",
          "name": "_donorId",
          "type": "string"
        },
        {
          "internalType": "string",
          "name": "_certificateId",
          "type": "string"
        },
        {
          "internalType": "uint256",
          "name": "_donationDate",
          "type": "uint256"
        }
      ],
      "name": "issueCertificate",
      "outputs": [],
      "stateMutability": "nonpayable",
      "type": "function"
    },
    {
      "inputs": [
        {
          "internalType": "string",
          "name": "_certificateId",
          "type": "string"
        }
      ],
      "name": "verifyCertificate",
      "outputs": [
        {
          "internalType": "bool",
          "name": "",
          "type": "bool"
        }
      ],
      "stateMutability": "view",
      "type": "function",
      "constant": true
    },
    {
      "inputs": [
        {
          "internalType": "string",
          "name": "_certificateId",
          "type": "string"
        }
      ],
      "name": "invalidateCertificate",
      "outputs": [],
      "stateMutability": "nonpayable",
      "type": "function"
    },
    {
      "inputs": [
        {
          "internalType": "string",
          "name": "_certificateId",
          "type": "string"
        }
      ],
      "name": "useCertificate",
      "outputs": [
        {
          "internalType": "string",
          "name": "",
          "type": "string"
        }
      ],
      "stateMutability": "nonpayable",
      "type": "function"
    }
  ],
  "bytecode": "0x608060405234801561000f575f80fd5b50335f806101000a81548173ffffffffffffffffffffffffffffffffffffffff021916908373ffffffffffffffffffffffffffffffffffffffff1602179055506115b78061005c5f395ff3fe608060405234801561000f575f80fd5b5060043610610086575f3560e01c80638b23d875116100595780638b23d875146101115780638f2b91ea14610141578063ac6b2a1314610174578063df3ef8b81461019257610086565b806324f349f91461008a578063291fd18f146100a65780632a856c95146100c25780635d40a91e146100de575b5f80fd5b6100a4600480360381019061009f9190610bb7565b6101c2565b005b6100c060048036038101906100bb9190610c31565b6102f7565b005b6100dc60048036038101906100d79190610cb9565b610489565b005b6100f860048036038101906100f39190610bb7565b6105ad565b6040516101089493929190610dfa565b60405180910390f35b61012b60048036038101906101269190610bb7565b610783565b6040516101389190610e6c565b60405180910390f35b61015b60048036038101906101569190610bb7565b610806565b60405161016b9493929190610e85565b60405180910390f35b61017c610962565b6040516101899190610f15565b60405180910390f35b6101ac60048036038101906101a79190610bb7565b610985565b6040516101b99190610f2e565b60405180910390f35b5f8054906101000a900473ffffffffffffffffffffffffffffffffffffffff1673ffffffffffffffffffffffffffffffffffffffff163373ffffffffffffffffffffffffffffffffffffffff161461024f576040517f08c379a000000000000000000000000000000000000000000000000000000000815260040161024690610fbe565b60405180910390fd5b60028160405161025f9190611016565b90815260200160405180910390206003015f9054906101000a900460ff166102bc576040517f08c379a00000000000000000000000000000000000000000000000000000000081526004016102b390611076565b60405180910390fd5b5f6002826040516102cd9190611016565b90815260200160405180910390206003015f6101000a81548160ff02191690831515021790555050565b5f8054906101000a900473ffffffffffffffffffffffffffffffffffffffff1673ffffffffffffffffffffffffffffffffffffffff163373ffffffffffffffffffffffffffffffffffffffff1614610384576040517f08c379a000000000000000000000000000000000000000000000000000000000815260040161037b90610fbe565b60405180910390fd5b5f6001846040516103959190611016565b908152602001604051809103902060010154036103e7576040517f08c379a00000000000000000000000000000000000000000000000000000000081526004016103de906110de565b60405180910390fd5b5f60405180608001604052808481526020018581526020018381526020016001151581525090508060028460405161041f9190611016565b90815260200160405180910390205f820151815f01908161044091906112f6565b50602082015181600101908161045691906112f6565b50604082015181600201556060820151816003015f6101000a81548160ff02191690831515021790555090505050505050565b5f8054906101000a900473ffffffffffffffffffffffffffffffffffffffff1673ffffffffffffffffffffffffffffffffffffffff163373ffffffffffffffffffffffffffffffffffffffff1614610516576040517f08c379a000000000000000000000000000000000000000000000000000000000815260040161050d90610fbe565b60405180910390fd5b5f60405180608001604052808581526020018481526020018381526020018681525090508060018660405161054b9190611016565b90815260200160405180910390205f820151815f01908161056c91906112f6565b5060208201518160010155604082015181600201908161058c91906112f6565b5060608201518160030190816105a291906112f6565b509050505050505050565b6001818051602081018201805184825260208301602085012081835280955050505050505f91509050805f0180546105e490611129565b80601f016020809104026020016040519081016040528092919081815260200182805461061090611129565b801561065b5780601f106106325761010080835404028352916020019161065b565b820191905f5260205f20905b81548152906001019060200180831161063e57829003601f168201915b50505050509080600101549080600201805461067690611129565b80601f01602080910402602001604051908101604052809291908181526020018280546106a290611129565b80156106ed5780601f106106c4576101008083540402835291602001916106ed565b820191905f5260205f20905b8154815290600101906020018083116106d057829003601f168201915b50505050509080600301805461070290611129565b80601f016020809104026020016040519081016040528092919081815260200182805461072e90611129565b80156107795780601f1061075057610100808354040283529160200191610779565b820191905f5260205f20905b81548152906001019060200180831161075c57829003601f168201915b5050505050905084565b5f6002826040516107949190611016565b90815260200160405180910390206003015f9054906101000a900460ff1680156107ff57505f60016002846040516107cc9190611016565b90815260200160405180910390206001016040516107ea9190611445565b90815260200160405180910390206001015414155b9050919050565b6002818051602081018201805184825260208301602085012081835280955050505050505f91509050805f01805461083d90611129565b80601f016020809104026020016040519081016040528092919081815260200182805461086990611129565b80156108b45780601f1061088b576101008083540402835291602001916108b4565b820191905f5260205f20905b81548152906001019060200180831161089757829003601f168201915b5050505050908060010180546108c990611129565b80601f01602080910402602001604051908101604052809291908181526020018280546108f590611129565b80156109405780601f1061091757610100808354040283529160200191610940565b820191905f5260205f20905b81548152906001019060200180831161092357829003601f168201915b505050505090806002015490806003015f9054906101000a900460ff16905084565b5f8054906101000a900473ffffffffffffffffffffffffffffffffffffffff1681565b60606002826040516109979190611016565b90815260200160405180910390206003015f9054906101000a900460ff166109f4576040517f08c379a00000000000000000000000000000000000000000000000000000000081526004016109eb906114a5565b60405180910390fd5b5f6109fe83610783565b905080610a40576040517f08c379a0000000000000000000000000000000000000000000000000000000008152600401610a3790611533565b60405180910390fd5b610a49836101c2565b60405180606001604052806030815260200161155260309139915050919050565b5f604051905090565b5f80fd5b5f80fd5b5f80fd5b5f80fd5b5f601f19601f8301169050919050565b7f4e487b71000000000000000000000000000000000000000000000000000000005f52604160045260245ffd5b610ac982610a83565b810181811067ffffffffffffffff82111715610ae857610ae7610a93565b5b80604052505050565b5f610afa610a6a565b9050610b068282610ac0565b919050565b5f67ffffffffffffffff821115610b2557610b24610a93565b5b610b2e82610a83565b9050602081019050919050565b828183375f83830152505050565b5f610b5b610b5684610b0b565b610af1565b905082815260208101848484011115610b7757610b76610a7f565b5b610b82848285610b3b565b509392505050565b5f82601f830112610b9e57610b9d610a7b565b5b8135610bae848260208601610b49565b91505092915050565b5f60208284031215610bcc57610bcb610a73565b5b5f82013567ffffffffffffffff811115610be957610be8610a77565b5b610bf584828501610b8a565b91505092915050565b5f819050919050565b610c1081610bfe565b8114610c1a575f80fd5b50565b5f81359050610c2b81610c07565b92915050565b5f805f60608486031215610c4857610c47610a73565b5b5f84013567ffffffffffffffff811115610c6557610c64610a77565b5b610c7186828701610b8a565b935050602084013567ffffffffffffffff811115610c9257610c91610a77565b5b610c9e86828701610b8a565b9250506040610caf86828701610c1d565b9150509250925092565b5f805f8060808587031215610cd157610cd0610a73565b5b5f85013567ffffffffffffffff811115610cee57610ced610a77565b5b610cfa87828801610b8a565b945050602085013567ffffffffffffffff811115610d1b57610d1a610a77565b5b610d2787828801610b8a565b9350506040610d3887828801610c1d565b925050606085013567ffffffffffffffff811115610d5957610d58610a77565b5b610d6587828801610b8a565b91505092959194509250565b5f81519050919050565b5f82825260208201905092915050565b5f5b83811015610da8578082015181840152602081019050610d8d565b5f8484015250505050565b5f610dbd82610d71565b610dc78185610d7b565b9350610dd7818560208601610d8b565b610de081610a83565b840191505092915050565b610df481610bfe565b82525050565b5f6080820190508181035f830152610e128187610db3565b9050610e216020830186610deb565b8181036040830152610e338185610db3565b90508181036060830152610e478184610db3565b905095945050505050565b5f8115159050919050565b610e6681610e52565b82525050565b5f602082019050610e7f5f830184610e5d565b92915050565b5f6080820190508181035f830152610e9d8187610db3565b90508181036020830152610eb18186610db3565b9050610ec06040830185610deb565b610ecd6060830184610e5d565b95945050505050565b5f73ffffffffffffffffffffffffffffffffffffffff82169050919050565b5f610eff82610ed6565b9050919050565b610f0f81610ef5565b82525050565b5f602082019050610f285f830184610f06565b92915050565b5f6020820190508181035f830152610f468184610db3565b905092915050565b7f556e617574686f72697a65643a2063616c6c6572206973206e6f7420746865205f8201527f5265642043726f73730000000000000000000000000000000000000000000000602082015250565b5f610fa8602983610d7b565b9150610fb382610f4e565b604082019050919050565b5f6020820190508181035f830152610fd581610f9c565b9050919050565b5f81905092915050565b5f610ff082610d71565b610ffa8185610fdc565b935061100a818560208601610d8b565b80840191505092915050565b5f6110218284610fe6565b915081905092915050565b7f436572746966696361746520616c726561647920696e76616c696461746564005f82015250565b5f611060601f83610d7b565b915061106b8261102c565b602082019050919050565b5f6020820190508181035f83015261108d81611054565b9050919050565b7f446f6e6f72206e6f7420726567697374657265640000000000000000000000005f82015250565b5f6110c8601483610d7b565b91506110d382611094565b602082019050919050565b5f6020820190508181035f8301526110f5816110bc565b9050919050565b7f4e487b71000000000000000000000000000000000000000000000000000000005f52602260045260245ffd5b5f600282049050600182168061114057607f821691505b602082108103611153576111526110fc565b5b50919050565b5f819050815f5260205f209050919050565b5f6020601f8301049050919050565b5f82821b905092915050565b5f600883026111b57fffffffffffffffffffffffffffffffffffffffffffffffffffffffffffffffff8261117a565b6111bf868361117a565b95508019841693508086168417925050509392505050565b5f819050919050565b5f6111fa6111f56111f084610bfe565b6111d7565b610bfe565b9050919050565b5f819050919050565b611213836111e0565b61122761121f82611201565b848454611186565b825550505050565b5f90565b61123b61122f565b61124681848461120a565b505050565b5b818110156112695761125e5f82611233565b60018101905061124c565b5050565b601f8211156112ae5761127f81611159565b6112888461116b565b81016020851015611297578190505b6112ab6112a38561116b565b83018261124b565b50505b505050565b5f82821c905092915050565b5f6112ce5f19846008026112b3565b1980831691505092915050565b5f6112e683836112bf565b9150826002028217905092915050565b6112ff82610d71565b67ffffffffffffffff81111561131857611317610a93565b5b6113228254611129565b61132d82828561126d565b5f60209050601f83116001811461135e575f841561134c578287015190505b61135685826112db565b8655506113bd565b601f19841661136c86611159565b5f5b828110156113935784890151825560018201915060208501945060208101905061136e565b868310156113b057848901516113ac601f8916826112bf565b8355505b6001600288020188555050505b505050505050565b5f81546113d181611129565b6113db8186610fdc565b9450600182165f81146113f5576001811461140a5761143c565b60ff198316865281151582028601935061143c565b61141385611159565b5f5b8381101561143457815481890152600182019150602081019050611415565b838801955050505b50505092915050565b5f61145082846113c5565b915081905092915050565b7f496e76616c6964206365727469666963617465000000000000000000000000005f82015250565b5f61148f601383610d7b565b915061149a8261145b565b602082019050919050565b5f6020820190508181035f8301526114bc81611483565b9050919050565b7f566572696669636174696f6e206661696c65643a20696e76616c6964206365725f8201527f7469666963617465000000000000000000000000000000000000000000000000602082015250565b5f61151d602883610d7b565b9150611528826114c3565b604082019050919050565b5f6020820190508181035f83015261154a81611511565b905091905056fe43657274696669636174652075736564207375636365737366756c6c792c20736572766963652070726f76696465642ea2646970667358221220bb195a25838ceee4c17b1366611dd8b95fdfb05ea3651b946e0076b1dfa32df164736f6c63430008150033",
  "immutableReferences": {},
  "source": "// SPDX-License-Identifier: MIT\npragma solidity ^0.8.4;\n\ncontract BloodDonation {\n    // \n    struct Donor {\n        string name;       // \n        uint age;          // \n        string bloodType;  // \n        string donorId;    //   ID\n    }\n\n    // \n    struct DonationCertificate {\n        string certificateId;   //  ID\n        string donorId;         //   ID\n        uint256 donationDate;   //  \n        bool isValid;           //  \n    }\n\n    // \n    address public redCross; // ()  \n    mapping(string => Donor) public donors; //   ID    \n    mapping(string => DonationCertificate) public certificates; //  ID    \n\n    constructor() {\n        redCross = msg.sender; //       \n    }\n\n    //    () \n    modifier onlyRedCross() {\n        require(msg.sender == redCross, \"Unauthorized: caller is not the Red Cross\");\n        _;\n    }\n\n    //    \n    function registerDonor(string memory _donorId, string memory _name, uint _age, string memory _bloodType) public onlyRedCross {\n        Donor memory newDonor = Donor({\n            name: _name,\n            age: _age,\n            bloodType: _bloodType,\n            donorId: _donorId\n        });\n        donors[_donorId] = newDonor;\n    }\n\n    //     \n    function issueCertificate(string memory _donorId, string memory _certificateId, uint256 _donationDate) public onlyRedCross {\n        require(donors[_donorId].age != 0, \"Donor not registered\");\n\n        DonationCertificate memory newCertificate = DonationCertificate({\n            certificateId: _certificateId,\n            donorId: _donorId,\n            donationDate: _donationDate,\n            isValid: true\n        });\n        certificates[_certificateId] = newCertificate;\n    }\n\n    //     \n    function verifyCertificate(string memory _certificateId) public view returns (bool) {\n        return certificates[_certificateId].isValid && donors[certificates[_certificateId].donorId].age != 0;\n    }\n\n    //     \n    function invalidateCertificate(string memory _certificateId) public onlyRedCross {\n        require(certificates[_certificateId].isValid, \"Certificate already invalidated\");\n        certificates[_certificateId].isValid = false;\n    }\n\n    //    \n    function useCertificate(string memory _certificateId) public returns (string memory) {\n        require(certificates[_certificateId].isValid, \"Invalid certificate\");\n        //  \n        bool isValid = verifyCertificate(_certificateId);\n        require(isValid, \"Verification failed: invalid certificate\");\n        \n        //   ,      \n        // : \"Received medical service\"\n        \n        //    \n        invalidateCertificate(_certificateId);\n        \n        return \"Certificate used successfully, service provided.\";\n    }\n}\n",
  "sourcePath": "/Users/mac/Desktop/programs/personal/blood_donation_did/contracts/BloodDonation.sol",
  "compiler": {
    "name": "solc",
    "version": "0.8.21+commit.d9974bed.Emscripten.clang"
  },
  "schemaVersion": "3.4.16",
  "updatedAt": "2024-04-17T19:49:22.110Z",
  "networkType": "ethereum",
  "devdoc": {
    "kind": "dev",
    "methods": {},
    "version": 1
  },
  "userdoc": {
    "kind": "user",
    "methods": {},
    "version": 1
  }
}